:020000040800F2
:100000003810002005010008C53E0008B93100087D
:100010008939000879240008FB510008000000001D
:10002000000000000000000000000000ED46000895
:100030009B24000800000000CD410008D9470008BB
:100040001F0100081F0100081F0100081F01000810
:100050001F0100081F0100081F0100081F01000800
:100060001F0100081F0100081F0100081F010008F0
:100070001F0100081F0100081F0100081F010008E0
:100080001F0100081F0100081F0100081F010008D0
:100090001F0100081F0100081F0100081F010008C0
:1000A0001F0100081F0100081F0100081F010008B0
:1000B0001F0100081F0100081F0100081F010008A0
:1000C0001F0100081F0100081F0100081F01000890
:1000D0001F010008F94D0008794E0008C94F0008BB
:1000E0001F0100081F0100081F010008DFF810D0E1
:1000F00000F00EFC00480047095B0008AFF30080E9
:10010000381000200648804706480047FEE7FEE713
:10011000FEE7FEE7FEE7FEE7FEE7FEE7FEE7FEE7B7
:1001200029480008ED00000840EA01039B0703D0BE
:1001300009E008C9121F08C0042AFAD203E011F826
:10014000013B00F8013B521EF9D27047D2B201E0E8
:1001500000F8012B491EFBD270470022F6E710B5CC
:1001600013460A4604461946FFF7F0FF204610BD25
:10017000F0B480EA0102D40F4200B2EB410F02D288
:100180000246084611464A0042D0C30DDDB2C1F313
:10019000C752AD1A202D35DAC1F3160141F4000221
:1001A00004B15242C5F1200602FA06F12A41104478
:1001B000B3EBD05F23D0C4B1012DA0EBC35009DC59
:1001C000F0BC4FF0004202EAC352DBB200F500007F
:1001D00000F080BA400000F1807000EBC350A0F145
:1001E000807040EAD170490009E0490841EAC071D5
:1001F000A0EBC35000F50000400800EBC350F0BC7A
:1002000000F05FBA6142012202EB4101001BF6E7F8
:10021000F0BC704781F00041AAE780F00040A7E7FA
:1002200080EA010210B502F00043400022D04A00EB
:100230001FD0010E01EB1261C0F35600C2F356024B
:1002400040F4000042F40002A0FB022000047F39C9
:10025000140400D0401C50EA124001D44000491E52
:10026000C2B20C0604EBD010401C4008802A02D019
:1002700003E0002010BD20F00100002900DA00207A
:10028000184310BD30B480EA010202F0004530F09E
:10029000004221F0004013D090B1C30DD40DC2F341
:1002A0001601C0F31600E41A41F4000140F4000204
:1002B0007D34914201D3641C00E04900002C02DA35
:1002C00030BC002070474FF400000023914201D35E
:1002D000891A034340084FEA4101F7D151B19142D5
:1002E00002D14FF0004105E002D24FF0010101E0E0
:1002F0006FF0010103EBC450284430BC00F0E1B9B9
:100300002DE9FE4F804681EA0300C00F0C460090A5
:1003100021F0004123F00045B8EB0200A94105D2CD
:100320004046214690461C460B46024623F00040BC
:10033000104347D0270DC7F30A00C3F30A510290B8
:10034000401A019040286BDAC3F3130040F4801B7D
:100350000098924620B10023D2EB030A63EB0B0B0B
:1003600001985946C0F14002504600F079F906461E
:100370000D4650465946019A00F091F910EB0800DD
:100380006141002487EA115284EAE7731A4340D09E
:10039000009A62B3019A012A4FEA075215DC001B4A
:1003A00061EB02014FF0004202EA0752CDE9004240
:1003B000001C41F5801132462B4600F0D4F903B001
:1003C000BDE8F08F40462146F9E7001B61EB0201D2
:1003D000001C41F5801300185B412018A2F500179E
:1003E00047EB030140EAD570B6196D4111E06D0885
:1003F0004FEA360645EAC0754FEA0752001B61EB2B
:100400000201001C41F5801149084FEA3000001933
:10041000514132462B4603B0BDE8F04F00F094B98D
:100420000098012240000023D0EB020263EBE0734E
:10043000009821464FEAE074B8EB000061EB04013C
:10044000E9E783F000435BE781F0004158E72DE9DD
:10045000FE4F81EA030404F0004421F000410094BF
:100460004FF0000B23F0004350EA01045ED052EA43
:1004700003045BD0C3F30A54C1F30A552C44A4F21D
:10048000F3340194A0FB0254C1F3130141F4801131
:10049000C3F3130343F4801301FB024400FB034E38
:1004A000840A970A44EA815447EA8357A4FB076801
:1004B00002958D0A05FB07854FEA932C04FB0C542B
:1004C0002705029D4FEA065847EA1637B5EB08059F
:1004D0006EEB070C870E920E47EA811742EA8312F1
:1004E000A7FB0201B6EB0B0164EB00042B0D43EA02
:1004F0000C335E1844EB1C50DA465146E7FB020110
:10050000C5F313044FEA0B3343EA14534FEA0432A2
:10051000019C43EA0603A4F10C040294009CCDE97B
:1005200000B400F020F903B0BDE8F08F00200146D0
:10053000F9E7C10F80EAE0700844CA07962300215A
:1005400000F0C8B896230022114600F0C3B800F0AE
:10055000004220F00040C10DC0F3160040F400003E
:100560007F2901DA00207047962903DCC1F196014A
:10057000C84001E096398840002AF4D040427047D4
:1005800020F00040C10DC0F3160040F400007F29A8
:1005900001DA00207047962903DCC1F19601C840BA
:1005A0007047963988407047C1F30A5210B5C1F3BD
:1005B000130140F2FF3341F480119A4201DA002026
:1005C00010BD40F233439A42A2F2334203DC52425E
:1005D00000F055F810BD904010BD00F0004230F022
:1005E00000400AD0C10D01F56071C0F3160042EA67
:1005F0000151C2084007114370470020014670476F
:1006000001F0004330B421F0004150EA010206D06D
:100610000A0DA2F56072C1F31301002A02DC30BC9E
:1006200000207047440F44EAC104C100E01830BC08
:1006300000EBC25000F045B8002801DBC0F10040DB
:10064000002901DBC1F1004181427047002801DB34
:10065000C0F10040002901DBC1F100418842704730
:10066000202A04DB203A00FA02F100207047914072
:10067000C2F1200320FA03F3194390407047202A67
:1006800004DB203A21FA02F00021704721FA02F33C
:10069000D040C2F120029140084319467047202AF9
:1006A00006DBCB17203A41FA02F043EAE07306E09A
:1006B00041FA02F3D040C2F12002914008431946AA
:1006C00070470029A8BF7047401C490008BF20F0B0
:1006D0000100704710B4B0FA80FC00FA0CF050EA48
:1006E000010404BF10BC704749B1CCF1200421FAC9
:1006F00004F411FA0CF118BF012121430843A3EBC4
:100700000C01CB1D4FEA00614FEA102042BF0020D0
:1007100010BC704700EBC35010440029A4BF10BCAC
:100720007047401C490008BF20F0010010BC704712
:10073000420005D0C0F3C7525242914201DC002072
:10074000704700EBC150704710B5141E73F10004E0
:1007500008DA401C41F1000192185B411A4301D1B3
:1007600020F0010010BD2DE9F04D92469B4611B1DD
:10077000B1FA81F202E0B0FA80F220329046FFF73F
:100780006FFF04460F4640EA0A0041EA0B01534658
:100790005A46084313D0114653EA010019D0C8F154
:1007A00040025046FFF76BFF05460E46504659463D
:1007B0004246FFF755FF084305D0012004E02046DC
:1007C0003946BDE8F08D0020054346EAE0762C432B
:1007D00037430A986305E40AA0EB08000022FD0AEB
:1007E00044EA47540A3002D500200146E9E70105F2
:1007F00010196941DDE9084500196941BDE8F04D6E
:10080000A2E72DE9F04D81EA030404F0004B21F04A
:10081000004514464FF0000A23F0004150EA05025B
:1008200020D054EA01021DD0C5F30A570246C5F391
:100830001303C1F31300C1F30A5640F4801543F4C7
:100840008013A7EB0608101BD64608F2FD3873EBA1
:10085000050002D308F1010801E092185B41B8F1EC
:10086000000F03DA00200146BDE8F08D00204FF4B0
:100870008011064684460EE0171B73EB050705D36F
:10088000121B63EB050306434CEA010C49084FEACF
:10089000300092185B4150EA0107EDD152EA0300A3
:1008A00012D082EA040083EA0501084305D0101B38
:1008B000AB4106D20122002306E000224FF00043A4
:1008C00002E06FF0010253101AEB06004CEB0851E6
:1008D00010EB0A0041EB0B01BDE8F04DFFF734BF10
:1008E00070B521F0004303430CD0C1F30A55002436
:1008F000D5EB040564EB0403D617AD1AB34102DB54
:100900000020014670BD201841EB025170BD00006F
:10091000064C074D06E0E06840F0010394E807004C
:1009200098471034AC42F6D3FFF7E4FB805F000831
:10093000A05F00082DE9F04D00231A461B1A8A41DA
:1009400003DB00200146BDE8F08DC1F30A52C1F37C
:10095000130141F480154FF0000BD10702D10018AC
:100960006D41521E0027044640F2FF11384601EB4C
:10097000620A3E468046024600204FF48011FFF78F
:100980007EFEC2197141BB1846EB0100B4EB030CAB
:1009900075EB000C04D3E41A65EB000517460E4610
:1009A000241908F101006D4180463428E3DDF9196E
:1009B00046EB0600091BA84103D24FF0FF32134655
:1009C00001E0002213461BEB070046EB0A51BDE88D
:1009D000F04DFFF7B9BE70B58C1810F8015B15F03B
:1009E000070301D110F8013B2A1106D110F8012BA1
:1009F00003E010F8016B01F8016B5B1EF9D12B07C6
:100A000005D40023521E0DD401F8013BFAE710F87B
:100A1000013BCB1A921C03E013F8015B01F8015B68
:100A2000521EF9D5A142D8D3002070BD10B502F0F6
:100A300043FE05F049F902F04FFF03F0EFF94FF4E0
:100A4000964001F071F9084804F058FA03F01AFBD7
:100A500000200649087001200549087003F014FFC2
:100A600003F082FF10BD000020A10700300000202D
:100A70007200002000B58FB0FE48007838B1002029
:100A8000FC4908700721FC4800F07AFCB1E2FB4801
:100A9000807900287DD0FA480078401CF849087019
:100AA00008460078012806D002287ED0032872D09C
:100AB000042871D163E1F3488069F3490490FFF79A
:100AC000AFFB0590FFF743FD00B20E90ED48406983
:100AD000ED490490FFF7A4FB0590FFF738FD00B245
:100AE0000D90E8480069E8490490FFF799FB0590EC
:100AF000FFF72DFD00B20C90E4488069E2490490B4
:100B0000FFF78EFB0590FFF722FD00B20B90DF4848
:100B10004069DD490490FFF783FB0590FFF717FD5F
:100B200000B20A90D9480069D7490490FFF778FBD2
:100B30000590FFF70CFD00B20990D5488069D249B5
:100B40000490FFF76DFB0590FFF701FD00B20890E0
:100B5000CF484069CC490490FFF762FB0590FFF74E
:100B6000F6FC00B20790CA480069C7490490FFF735
:100B700057FB0590FFF7EBFC00B20690DDE90B2375
:100B8000DDE90D10CDE90223CDE90410DDE909010D
:100B900003E091E109E07DE06BE1CDE90001012096
:100BA00006A90EC900F0F4FB63E1BA488069B649B2
:100BB0000490FFF735FB0590FFF7C9FC00B20E90DB
:100BC000B4484069B0490490FFF72AFB0590FFF74D
:100BD000BEFC00B20D90AF480069AB490490FFF72E
:100BE0001FFB0590FFF7B3FC00B20C90AA48806988
:100BF000A5490490FFF714FB0590FFF7A8FC00B28D
:100C00000B90A5484069A0490490FFF709FB0590A7
:100C1000FFF79DFC00B20A909F4800699A49049032
:100C2000FFF7FEFA0590FFF792FC00B209909B488F
:100C3000806995490490FFF7F3FA0590FFF787FC68
:100C400000B20890954840698F490490FFF7E8FA90
:100C50000590FFF77CFC00B20790904800698A4934
:100C60000490FFF7DDFA0590FFF771FC00B20690E3
:100C7000DDE90B23DDE90D10CDE90223CDE90410F8
:100C8000DDE90901CDE90001022006A90EC900F045
:100C90007FFBEEE0824880697B490490FFF7C0FA51
:100CA0000590FFF754FC00B20E907D4840697649EC
:100CB0000490FFF7B5FA0590FFF749FC00B20D90DC
:100CC0007748006970490490FFF7AAFA0590FFF78A
:100CD0003EFC00B20C90734880696B490490FFF7AA
:100CE0009FFA0590FFF733FC00B20B906D48406906
:100CF00065490490FFF794FA0590FFF728FC00B2CD
:100D00000A906848006960490490FFF789FA0590E5
:100D1000FFF71DFC00B20990634880695A490490AE
:100D2000FFF77EFA0590FFF712FC00B208905E48CC
:100D3000406955490490FFF773FA0590FFF707FCE7
:100D400000B20790584800694F490490FFF768FACD
:100D50000590FFF7FCFB00B20690DDE90B23DDE90F
:100D60000D10CDE90223CDE90410DDE90901CDE93B
:100D70000001032006A90EC900F00AFB79E04B48E8
:100D8000806941490490FFF74BFA0590FFF7DFFBBC
:100D900000B20E90454840693B490490FFF740FA85
:100DA0000590FFF7D4FB00B20D904048006936492A
:100DB0000490FFF735FA0590FFF7C9FB00B20C90DD
:100DC0003B48806930490490FFF72AFA0590FFF705
:100DD000BEFB00B20B90364840692B490490FFF7E8
:100DE0001FFA0590FFF7B3FB00B20A903048006984
:100DF00025490490FFF714FA0590FFF7A8FB00B20D
:100E000009902C48806920490490FFF709FA059061
:100E1000FFF79DFB00B20890264840691A490490EC
:100E2000FFF7FEF90590FFF792FB00B2079021480B
:100E3000006915490490FFF7F3F90590FFF787FB68
:100E400000B20690DDE90B23DDE90D10CDE90223A8
:100E5000CDE90410DDE90901CDE90001042006A96E
:100E60000EC900F095FA0020054908700349887101
:100E700000BFBEE045010020F80B0020EA0B002077
:100E800043010020F002002000007A44700200209C
:100E9000F00100207004002070030020F003002007
:100EA000F006002070050020F004002070060020ED
:100EB00070070020F00500204F48807818B100200E
:100EC0004D49887095E04D480078401C4B490870AA
:100ED0000846007807281FD2DFE800F08A041F4088
:100EE000637C81004648806880F000400E90444852
:100EF000006880F000400D90424800784149496800
:100F0000C9B2CDE900103E48406800230C9001466C
:100F1000DDE90D0200F048FD6AE000213A48B0F931
:100F20000A00CDE90101039137480491B0F90800A6
:100F300000903548B0F906000E903348B0F904002F
:100F40000D903148B0F902000C902F48B0F9000024
:100F50000B900CA90EC900F009FC49E02B48408A0F
:100F60002B490B782949C989284A9289CDE903136D
:100F7000029205902548408924490989CDE900104D
:100F8000224840880E90214800880D901F48C08854
:100F90000C901E4880880B900CA90EC900F034FB01
:100FA00026E01C48B0F900000A2190FBF1F080B265
:100FB0000E901948008819490988CDE90010134896
:100FC000008A0D90124803780122DDE90D1000F02F
:100FD000A1FA0DE00021084600F096FC08E000228E
:100FE0001146104600F084FD00200449087000BF3F
:100FF00000BF0FB000BD0000EA0B0020430100203D
:10100000B0010020D4010020A4010020BC01002078
:101010007300002058000020DE000020DC000020CB
:101020002DE9F04104460D460026002700BF04E0EC
:10103000E05D3044C6B2781CC7B2681EB842F7DC27
:10104000601910F8010CB04201D0BDE8F0812078A1
:10105000AA2802D16078AF2800D0F6E7A07801284E
:1010600000D1C2E0A07802281BD1207901280CD140
:101070005F48007820F0400040305D490870012052
:101080005C49887100205C4908702079A02802D151
:101090000120584988702079A128E2D104F014FE7B
:1010A000A3E0A07803283FD101205449487020795B
:1010B000617941EA002052498880A079E17941EACA
:1010C00000204F49C880207A617A41EA00204C49CB
:1010D0000880A07AE17A41EA002049494880207BD3
:1010E000617B41EA002046490881A07BE17B41EA1F
:1010F000002043494881207C617C41EA002040492E
:101100008881A07CE17C41EA00203D49C881207DA6
:10111000617D41EA00203A490882A07DE17D41EAF3
:1011200000203749488260E0A078102810D11222B0
:10113000211D3448FEF7F8FF2D48007820F001000B
:10114000401C2B490870A078314600F0D7F84CE0DD
:10115000A078112810D11222211D2B48FEF7E4FFA0
:101160002348007820F00200801C21490870A078F4
:10117000314600F0C3F838E0A078122810D11222CE
:10118000211D2248FEF7D0FF1948007820F0040006
:10119000001D17490870A078314600F0AFF824E030
:1011A000A078132810D11222211D1948FEF7BCFF88
:1011B0000F48007820F0080008300D490870A0782A
:1011C000314600F09BF810E0A078142804D1A078F4
:1011D000314600F093F808E0A078152804D1A078F3
:1011E000314600F08BF800E000BF00BF2DE70000A3
:1011F000CE000020EA0B002043010020C8000020A0
:10120000BC010020700A0020820A0020940A0020FD
:10121000A60A002010B504463448007838B9AA2C34
:1012200005D1012031490870314804705DE02F4834
:101230000078012807D1AF2C05D102202B49087076
:101240002B48447051E029480078022807D1F12C3E
:1012500005DA0320254908702548847045E02348B5
:10126000007803280CD1322C0ADA04201F490870B8
:101270001F48C4701F48047000201F49087034E0E4
:101280001A480078042819D11A480078002815DD7A
:1012900018480078401E174908701748007816490A
:1012A0000978491C144A1170001D11490C54114849
:1012B0000078D0B905200D49087016E00B48007879
:1012C00005280FD10020094908700B480078001D3F
:1012D00007490C5408480078401DC1B20448FFF784
:1012E0009FFE02E000200149087010BDDB000020D5
:1012F000B80B0020D9000020DA0000202DE9F041D1
:1013000005460F4600260024AA201A4908701A49EB
:1013100008701849487018494870EF2015498870BE
:101320001549887002201349C8701349C87068B203
:10133000104908711049087178B20E4948710E4978
:10134000487100BF05E00B48005D3044C6B2601C28
:10135000C4B2062CF7DB70B2064988710649887161
:101360000120064908700721024803F069FEBDE824
:10137000F0810000CF000020F80B00204501002084
:1013800070B504460D462946204600F0B9FC70BDF4
:101390002DE9F84F06460F4690469946DDF828B0ED
:1013A0000024A246AA222146641C594842542146E0
:1013B000641C425406F10F00C2B22146641C54481A
:1013C000425400222146641C425400979DF801209B
:1013D0002146641C42549DF800202146641C42545E
:1013E000CDF800809DF801202146641C42549DF8F0
:1013F00000202046611CCCB245490A54CDF800902B
:101400009DF801202046611CCCB241490A549DF848
:1014100000202046611CCCB23D490A54CDF800B0F2
:101420009DF801202046611CCCB239490A549DF830
:1014300000202046611CCCB235490A540B9800901C
:101440009DF801202046611CCCB231490A549DF818
:1014500000202046611CCCB22D490A540C98009003
:101460009DF801202046611CCCB229490A549DF800
:1014700000202046611CCCB225490A540D980090EA
:101480009DF801202046611CCCB221490A549DF8E8
:1014900000202046611CCCB21D490A540E980090D1
:1014A0009DF801202046611CCCB219490A549DF8D0
:1014B00000202046611CCCB215490A540F980090B8
:1014C0009DF801202146601CC4B2114842549DF889
:1014D00000202046611CCCB20D490A54201FC87060
:1014E000002506E00A48405D504400F0FF0A681CF1
:1014F000C5B2A542F6DB2046611CCCB2044901F816
:1015000000A021460248FFF73BFFBDE8F88F00002E
:10151000F80B00202DE9F84F06460F4690469946F5
:10152000DDF828B00024A246AA222146641C3548D2
:1015300042542146641C425405222146641C4254F4
:1015400000222146641C425400969DF80120214649
:10155000641C42549DF800202146641C42540097AC
:101560009DF801202146641C42549DF8002020462D
:10157000611CCCB223490A542046611CCCB22149DB
:1015800001F800802046611CCCB21E4901F8009091
:10159000CDF800B09DF801202046611CCCB219495D
:1015A0000A549DF800202046611CCCB215490A540B
:1015B0000B9800909DF801202046611CCCB2114987
:1015C0000A549DF800202046611CCCB20D490A54F3
:1015D000201FC870002506E00A48405D504400F016
:1015E000FF0A681CC5B2A542F6DB2046611CCCB2DE
:1015F000044901F800A021460248FFF7C1FEBDE8FA
:10160000F88F0000F80B00207FB500240026AA22E6
:101610002146641C544842542146641C425403220F
:101620002146641C425400222146641C42549DF809
:1016300001202146641C42549DF800202146641C70
:1016400042549DF805202146641C42549DF8042014
:101650002046611CCCB244490A549DF80920214619
:10166000601CC4B2404842549DF808202046611CCA
:10167000CCB23D490A549DF80D202046611CCCB2E5
:1016800039490A549DF80C202046611CCCB23649D9
:101690000A549DF821202046611CCCB232490A54DC
:1016A0009DF820202046611CCCB22F490A549DF899
:1016B00025202146601CC4B22B4842549DF82420AA
:1016C0002046611CCCB228490A549DF829202046A6
:1016D000611CCCB224490A549DF828202146601C84
:1016E000C4B2214842549DF82D202046611CCCB242
:1016F0001D490A549DF82C202046611CCCB21A4981
:101700000A549DF831202046611CCCB216490A5477
:101710009DF830202046611CCCB213490A549DF834
:1017200035202046611CCCB20F490A549DF8342064
:101730002046611CCCB20C490A54201FC8700025F9
:1017400005E00948405D3044C6B2681CC5B2A542F8
:10175000F7DB2046611CCCB203490E5421460248F7
:10176000FFF70EFE7FBD0000F80B00202DE9F84FBB
:1017700006460F4690469946DDF828B00024A2465A
:10178000AA222146641C5F4842542146641C4254EC
:1017900002222146641C425400222146641C425409
:1017A00000969DF801202146641C42549DF80020BB
:1017B0002146641C425400979DF801202146641C78
:1017C00042549DF800202046611CCCB24D490A5479
:1017D000CDF800809DF801202046611CCCB249491B
:1017E0000A549DF800202046611CCCB245490A5499
:1017F000CDF800909DF801202046611CCCB24149F3
:101800000A549DF800202046611CCCB23D490A5480
:10181000CDF800B09DF801202046611CCCB23949BA
:101820000A549DF800202046611CCCB235490A5468
:101830000B9800909DF801202046611CCCB23149E4
:101840000A549DF800202046611CCCB22D490A5450
:101850000C9800909DF801202046611CCCB22949CB
:101860000A549DF800202046611CCCB225490A5438
:101870000D9800909DF801202046611CCCB22149B2
:101880000A549DF800202046611CCCB21D490A5420
:101890000E9800909DF801202046611CCCB2194999
:1018A0000A549DF800202046611CCCB215490A5408
:1018B000002000909DF801202046611CCCB2114907
:1018C0000A549DF800202046611CCCB20D490A54F0
:1018D000201FC870002506E00A48405D504400F013
:1018E000FF0A681CC5B2A542F6DB2046611CCCB2DB
:1018F000044901F800A021460248FFF741FDBDE878
:10190000F88F0000F80B002073B500240026AA22EF
:101910002146641C234842542146641C4254072239
:101920002146641C425400222146641C42549DF806
:1019300003202146641C42549DF802202146641C69
:1019400042549DF801202146641C42549DF8002019
:101950002046611CCCB213490A549DF8052020464C
:10196000611CCCB20F490A549DF804202046611C2A
:10197000CCB20C490A54201FC870002505E0094864
:10198000405D3044C6B2681CC5B2A542F7DB2046B4
:10199000611CCCB203490E5421460248FFF7F0FC0B
:1019A0007CBD0000F80B00202DE9FE4F82460E465C
:1019B00017469846DDF830B00024CDF80480A146E3
:1019C000AA222146641C484842542146641C4254C1
:1019D00001222146641C425400222146641C4254C8
:1019E00042495046FEF71CFC0090FEF7B0FD00B2E5
:1019F00002909DF809202146641C3B4842549DF802
:101A000008202146641C425438493046FEF708FC41
:101A10000090FEF79CFD00B202909DF8092021463F
:101A2000641C314842549DF808202146601CC4B211
:101A30002D4842542D493846FEF7F2FB0090FEF740
:101A400086FD00B202909DF809202046611CCCB2B0
:101A500025490A549DF808202046611CCCB2224931
:101A60000A549DF807202046611CCCB21E490A5436
:101A70009DF806202046611CCCB21B490A549DF8F3
:101A800005202046611CCCB217490A549DF8042059
:101A90002146601CC4B2144842542046611CCCB29A
:101AA000114901F800B02146621CD4B20E4A0D98CB
:101AB0005054201F1146C870002506E00A48405DBA
:101AC000484400F0FF09681CC5B2A542F6DB204679
:101AD000611CCCB2044901F8009021460248FFF78E
:101AE0004FFCBDE8FE8F0000F80B00200000C8424C
:101AF0002DE9F84306460F4690460024A146AA2247
:101B00002146641C264842542146641C42540B2240
:101B10002146641C425400222146641C4254009613
:101B20009DF801202146641C42549DF80020214666
:101B3000641C425400979DF801202146641C4254C5
:101B40009DF800202046611CCCB215490A54CDF8FE
:101B500000809DF801202046611CCCB210490A5437
:101B60009DF800202046611CCCB20D490A54201F6C
:101B7000C870002506E00A48405D484400F0FF09AF
:101B8000681CC5B2A542F6DB2046611CCCB20449F4
:101B900001F8009021460248FFF7F2FBBDE8F88308
:101BA000F80B002070B5072002F01CFA044604F080
:101BB000400098B1602002F015FA0546212D08DAA0
:101BC0002A460E49612002F0EBF900200C490880FA
:101BD00003E0FF21E22002F03DFA00BF04F0100014
:101BE00030B104F0010018B1FF21E12002F032FA17
:101BF0002146272002F02EFA70BD0000180A0020AE
:101C00007600002070B504460D464FF40060394957
:101C10000860052238492A2002F0FAF905223749DE
:101C2000302002F0F5F90121212002F013FA012100
:101C3000222002F00FFA1A21242002F00BFA294682
:101C4000252002F007FA0F21262002F003FA012CCA
:101C500008D12021312002F0FDF90F21202002F0CF
:101C6000F9F941E0022C08D12021312002F0F2F9EB
:101C70000E21202002F0EEF936E0032C1AD1FF21CC
:101C8000E12002F0E7F9FF21E22002F0E3F90F2161
:101C9000202002F0DFF9502002F00CFD732002F04A
:101CA00009FD01213C2002F0D5F906213D2002F07A
:101CB000D1F919E00E21202002F0CCF9FF21E1201A
:101CC00002F0C8F9FF21E22002F0C4F9502002F02E
:101CD000F1FC732002F0EEFC01213C2002F0BAF985
:101CE00006213D2002F0B6F94FF400600149091FBA
:101CF000086070BD140801400D5F0008085F00080F
:101D000070B504460D464FF40060064908602A4647
:101D10002146A82002F07CF94FF400600149091F18
:101D2000086070BD1408014010B588B00446012158
:101D3000880302F021FB0121084602F01DFB01216E
:101D4000042002F019FB4FF40070ADF804000320EA
:101D50008DF8060018208DF8070001A9254800F02D
:101D600073FD4FF48060ADF8040003208DF8060089
:101D700004208DF8070001A91E4800F065FD0494B9
:101D80000020ADF81400ADF81600ADF81800ADF85D
:101D90001C000C20ADF81A000020ADF80800ADF8CA
:101DA0000A004FF40070ADF80C000020ADF80E00F2
:101DB00004A9114803F0ACF902A90F4803F058F93F
:101DC000012240F225510C4803F07CF901210A4818
:101DD00003F05FF925208DF8000005208DF8010043
:101DE00001208DF802008DF80300684602F0ACF97E
:101DF00008B010BD00080140003801402DE9F04F47
:101E000089B00746022603AC4FF000084FF00009E6
:101E10004FF0000A162F7CD2DFE807F07BFDCF9B46
:101E20007BFB99DE7B7B7B7B7B7B7B7B0B12192097
:101E30002728DFF85083DFF85093DFF850A316E02F
:101E4000DFF84C83DFF84C93DFF84CA30FE0DFF8AA
:101E50004C83DFF84C93DFF84CA308E0DFF84883AD
:101E6000DFF84893DFF848A301E000BF00BFB8F1F6
:101E7000000F20D0D8F81000CE49FEF7D1F98346E4
:101E8000FEF765FB00B2ADF81000D8F81400C949A0
:101E9000FEF7C6F98346FEF75AFB00B2ADF8120012
:101EA000D8F81800C349FEF7BBF98346FEF74FFB8D
:101EB00000B2ADF81400B9F1000F20D0D9F810002D
:101EC000BC49FEF7ADF98346FEF741FB00B2ADF821
:101ED0001600D9F81400B749FEF7A2F98346FEF7B9
:101EE00036FB00B2ADF81800D9F81800B149FEF77A
:101EF00097F98346FEF72BFB00B2ADF81A00BAF152
:101F0000000F22D0DAF81000AA49FEF789F98346BB
:101F100000E000E1FEF71BFB00B2ADF81C00DAF8B0
:101F20001400A449FEF77CF98346FEF710FB00B2CB
:101F3000ADF81E00DAF818009E49FEF771F98346E5
:101F4000FEF705FB00B2ADF820001226E4E00826FB
:101F5000E2E09948808800B2ADF810009648C08849
:101F600000B2ADF812009448008800B2ADF8140039
:101F70009148408800B2ADF816008F48008900B241
:101F8000ADF818008C48408900B2ADF81A008A48B4
:101F9000808900B2ADF81C008748C08900B2ADF856
:101FA0001E008548008A00B2ADF820008248408AB1
:101FB00000B2ADF822001426AEE08048016804911A
:101FC00041680591806806907D4801680791808886
:101FD000ADF8200012269FE07A480078012805D14C
:101FE0007949C868FEF7B3FA029001E00020029038
:101FF000BDF80A00ADF81000BDF80800ADF81200F9
:1020000071498868FEF7BCFA00B2ADF814000626E4
:1020100082E07FE0FFE76B480078012805D16A493C
:102020004868FEF794FA029001E0002002906748A9
:10203000006880F0004066490190FEF7F1F88346A1
:10204000FEF785FA00B2ADF81000604948686049B3
:10205000FEF7E6F88346FEF77AFA00B2ADF8120012
:102060005A48806880F0004059490190FEF7D8F83E
:102070008346FEF76CFA00B2ADF81400BDF80A0012
:10208000ADF81600BDF80800ADF81800514880788A
:1020900030B1012808D0022814D003282ED11FE027
:1020A00000204D4948602DE04B480078012804D1BC
:1020B00040F201104849486003E04FF480704649FF
:1020C00048601FE044480078012804D140F2012014
:1020D0004149486003E04FF400703F49486011E017
:1020E0003D480078012804D140F201303A49486067
:1020F00003E04FF440703849486003E0002036495F
:10210000486000BF00BF3448406800B2ADF81A0014
:102110000C2601E000E000BF00BF4AF6AA20ADF89F
:102120000C0046EA072000B2ADF80E005421301D25
:10213000215402251AE06057691C615648406055D9
:10214000681C205661574840691C605460576156AE
:1021500048406055615D681C205C0144301D205C76
:10216000084441B2301D2154A81CC5B2301D85421F
:10217000E1DB701DC1B2204602F062FF09B0BDE88C
:10218000F08F0000F001002070020020F00200201B
:10219000F00300207003002070040020F0040020F1
:1021A00070050020F0060020F005002070070020D8
:1021B0007006002000007A44BC010020A401002029
:1021C0003200002030000020E0010020B00100209B
:1021D0000000C8423C000020D40100202DE9F84353
:1021E0009248007820B1012806D002287AD117E061
:1021F00001208E49087016E18D48007818B1022040
:102200008A4908700BE00220FFF7F8FD0120FFF774
:10221000F5FD0320FFF7F2FD0720FFF7EFFD02E1D8
:102220008348007810B90120804908708048007800
:10223000C0F38010E8B11020FFF7E0FD012003F0AB
:102240001FFC1120FFF7DAFD012003F019FC12201A
:10225000FFF7D4FD012003F013FC1320FFF7CEFDA0
:10226000012003F00DFC7248007820F04000704916
:1022700008706F48007800F03F0000287ED00025ED
:10228000002600276A48007800F0010050B1694D2F
:10229000694E6A4F6A4C6648007820F00100644934
:1022A000087031E062480078C0F3400050B1654DDD
:1022B000654E664F664C5E48007820F002005C492F
:1022C000087021E05A480078C0F3800058B1614D91
:1022D000614E624F624C5648007820F00400544929
:1022E000087011E09EE052480078C0F3C00050B181
:1022F0005C4D5D4E5D4F5E4C4D48007820F008000F
:102300004B49087000E08EE065B320788DF801003D
:1023100060788DF80000BDF80000FEF713F98046E4
:102320005449FDF7AFFF2861A0788DF80100E078EF
:102330008DF80000BDF80000FEF704F980464D4915
:10234000FDF7A0FF686120798DF8010060798DF8B4
:102350000000BDF80000FEF7F5F880464549FDF79E
:1023600091FFA86176B3A0798DF80100E0798DF82E
:102370000000BDF80000FEF7E5F800E051E08046FF
:102380003C49FDF77FFF3061207A8DF80100607ACB
:102390008DF80000BDF80000FEF7D4F880463549FE
:1023A000FDF770FF7061A07A8DF80100E07A8DF87A
:1023B0000000BDF80000FEF7C5F880462D49FDF786
:1023C00061FFB06167B3207B8DF80100607B8DF801
:1023D0000000BDF80000FEF7B5F880462549FDF77E
:1023E00051FF3861A07B8DF80100E07B8DF8000083
:1023F000BDF80000FEF7A6F880461E49FDF742FF33
:102400007861207C8DF80100607C8DF80000BDF8BB
:102410000000FEF797F880461649FDF733FFB861D4
:1024200000BF00E000BF00BFBDE8F883D800002077
:10243000CE000020F001002070020020F0020020F9
:10244000700A0020F00300207003002070040020B8
:10245000820A0020F004002070050020F006002011
:10246000940A0020F005002070070020700600206C
:10247000A60A002000007A4400BFFEE770B50646B9
:102480000C4615462946204603F0E8FBA06A30605A
:102490002946304603F0E2FB70BD704723490978B6
:1024A000234A11700021214A117022490978224AD9
:1024B000117000211F4A117020490978204A1170BB
:1024C00000211E4A11701F4909781F4A117000210E
:1024D0001C4A11701A4909780A2903DD00211B4A98
:1024E000117005E000211A4A11700121174A11707C
:1024F000154909780A2903DD0021164A117002E006
:102500000121144A11700021134A1160002009E0D2
:10251000124951F82010104A126811440E4A1160F5
:10252000411CC8B20628F3DB70470000740000208D
:102530007300002031010020300100202500002020
:102540002600002024000020270000204101002058
:102550002800002042010020200000207C010020F3
:1025600010B500F007FE0649C86001F07FFF00F0DB
:1025700001FE0349C968401A0149C86010BD000046
:102580007C01002010B500F0F5FD06490861FFF759
:1025900025FE00F0EFFD03490969401A0149086171
:1025A00010BD00007C01002010B500F0E3FD0849DB
:1025B000086001F025FB074800F0A6F801F0E6F9F5
:1025C00000F0D8FD02490968401A0149086010BDB1
:1025D0007C0100206F12033B10B500F0CBFD0849D1
:1025E0004860FFF7DFFAFEF745FA01F0D9FF00F087
:1025F000C1FD03494968401A0149486010BD000007
:102600007C01002010B500F0B5FD0749486101F0DC
:10261000DFFD00F025F800F0ADFD03494969401ADF
:102620000149486110BD00007C01002010B500F098
:10263000A1FD07498860074A0749084800F0DAF910
:1026400000F098FD02498968401A0149886010BD70
:102650007C010020A69BC43BB0010020A401002007
:102660000020214908802148007820B908460088C8
:1026700040F0010008801E48007828B91A480088F8
:1026800040F00200184908801A48007828B9164816
:10269000008840F00400144908801748007828B1E9
:1026A0001148008840F008000F490880134800785E
:1026B00028B90D48008840F010000B4908801048E8
:1026C0000078012805D10848008840F0200006491C
:1026D00008800C48007828B90348008840F0400082
:1026E0000149088070470000DC00002070000020D5
:1026F00072000020710000204001002041010020F4
:10270000680000204201002070B50446424800786D
:10271000012806D00B280BD01F2817D0FF286FD117
:1027200065E03E48007810B10B203B4908706BE033
:1027300008213B4803F07CFA00203A4948620860CF
:10274000394988601F20344908705DE03749B1F984
:102750000600FDF7EEFE0546354801682846FDF700
:102760005FFD344948623149B1F90800FDF7E1FEE7
:1027700005462F4801682846FDF752FD2E4948625C
:102780002A49B1F90A00FDF7D4FE05462848016838
:102790002846FDF745FD29494862234840682849F5
:1027A000486221480068274948621F4880681D49DF
:1027B00048622146234803F051FA2248806A1D49A5
:1027C000086021461B4803F049FA21461C4803F0E3
:1027D00045FA1B48806A184908602146164803F0EC
:1027E0003DFA22460F491548FFF748FE0CE0082144
:1027F0000B4803F01DFA01200749087004E0FFE7C9
:10280000FF200549087000BF00BF0448007810B9D8
:10281000FF200149087070BD24010020D401002070
:10282000EC00002070040020B0010020A401002072
:10283000205F0008F001002070020020F00200205C
:1028400070030020F00300202DE9F041024600252E
:102850000026002000230024002791F803C00CF07C
:102860000F0591F803C00CF0100CBCF1000F03D061
:1028700091F802C04CEA050591F800C0BCF1000FC8
:1028800031D0146800202BE04FF0010C0CFA00F35B
:10289000B1F800C00CEA03069E4220D183004FF03D
:1028A0000F0C0CFA03F7BC4305FA03FC4CEA0404D2
:1028B00091F803C0BCF1280F06D14FF0010C0CFABF
:1028C00000FCC2F814C00AE091F803C0BCF1480F44
:1028D00005D14FF0010C0CFA00FCC2F810C0401CEE
:1028E0000828D1D31460B1F800C0BCF1FF0F34DD6B
:1028F000546800202EE000F1080C4FF0010808FA9F
:102900000CF3B1F800C00CEA03069E4221D183000B
:102910004FF00F0C0CFA03F7BC4305FA03FC4CEA2A
:10292000040491F803C0BCF1280F05D100F1080C94
:1029300008FA0CF8C2F8148091F803C0BCF1480FF3
:1029400007D100F1080C4FF0010808FA0CF8C2F8A2
:102950001080401C0828CED35460BDE8F0810000F0
:10296000F0B50A46002300240021002500F00046AF
:10297000B6F1004F02D11D4EF16901E01B4E7168A6
:10298000C0F3034583B200F44016B6F5401F08D1EA
:1029900021F07061154E766826F07066134F7E60E8
:1029A00012E000F48016B6F5801F06D1032606FA61
:1029B00005F4A14341F0706106E0460D360103FACB
:1029C00006F6B14341F0706122B1460D360103FABB
:1029D00006F6314300F00046B6F1004F02D1034E37
:1029E000F16101E0014E7160F0BD000000000140A6
:1029F0000161704707B59EB04FF07C512098FDF7FC
:102A00000FFC0C90FE4880680890FD480068079015
:102A10000899FDF705FC0A90F948C0680890F84845
:102A2000406807900899FDF7FBFB09900A99FDF7AC
:102A3000F1FB4FF080410B90FDF7F2FB1B90F0484B
:102A4000C0680890EE48806807900899FDF7E8FB99
:102A50000A90EB4840680890E94800680790089998
:102A6000FDF7DEFB09900A99FDF782FB4FF08041EC
:102A70000B90FDF7D5FB1C90E14880680790E0487B
:102A8000806806900799FDF7CBFB0990DC48406809
:102A90000790DB48406806900799FDF7C1FB089056
:102AA0000999FDF765FB4FF080410A90FDF7B8FBEF
:102AB0004FF07E510B90FDF7B0FB1D90D148B0F95F
:102AC00004000690FDF735FD0890CE48B0F90400EB
:102AD0000690FDF72EFD07900899FDF7A1FB0A90DF
:102AE000C848B0F902000490FDF723FD0690C548E0
:102AF000B0F902000490FDF71CFD05900699FDF762
:102B00008FFB0890BF48B0F900000490FDF711FD5D
:102B10000690BC48B0F900000490FDF70AFD05904E
:102B20000699FDF77DFB07900899FDF721FB0990B9
:102B30000A99FDF71DFB0B9001F0E6FB0D901E9826
:102B4000B0F900000A90FDF7F4FC0B900D99FDF729
:102B500067FB18901E98B0F902000A90FDF7E9FC97
:102B60000B900D99FDF75CFB19901E98B0F90400CD
:102B70000A90FDF7DEFC0B900D99FDF751FB1A90C2
:102B80001C9809901A9808900999FDF749FB0B9039
:102B90001D980990199808900999FDF741FB0A9032
:102BA0000B99FDF737FB12901D9809901898089023
:102BB0000999FDF735FB0B901B9809901A9808901E
:102BC0000999FDF72DFB0A900B99FDF723FB139054
:102BD0001B980990199808900999FDF721FB0B9013
:102BE0001C980990189808900999FDF719FB0A900C
:102BF0000B99FDF70FFB149012980A908248016818
:102C00000A98FDF70DFB0B908048006801460A907A
:102C10000B98FDF7ADFA7D49086013980A907A4841
:102C200001680A98FDF7FCFA0B9078484068014665
:102C30000A900B98FDF79CFA7449486014980A9022
:102C4000714801680A98FDF7EBFA0B906F488068AD
:102C500001460A900B98FDF78BFA6C498860129830
:102C6000014608906A480068FDF7DAFA0A901E9853
:102C7000B0F906000790FDF75CFC08906548016814
:102C80000898FDF7CDFA09900A99FDF771FA0B90B3
:102C90005E48006801460A900B98FDF769FA1590A6
:102CA0001398014608905A480068FDF7B9FA0A904F
:102CB0001E98B0F908000790FDF73BFC08905548B6
:102CC00001680898FDF7ACFA09900A99FDF750FAE7
:102CD0000B904E48406801460A900B98FDF748FA61
:102CE000169014980146089049480068FDF798FA34
:102CF0000A901E98B0F90A000790FDF71AFC089098
:102D0000444801680898FDF78BFA09900A99FDF785
:102D10002FFA0B903D48806801460A900B98FDF70A
:102D200027FA1790179808903548C06807900899B7
:102D3000FDF776FA0A90169806903148806805905B
:102D40000699FDF76DFA08902D48406880F0004024
:102D500006901598014605900698FDF761FA0790D0
:102D60000899FDF757FA09900A99FDF753FA0B9065
:102D70000C99FDF755FA1190179808902048806833
:102D800007900899FDF74CFA0A90169806901C488F
:102D9000C06805900699FDF743FA089015980690CB
:102DA0001748006805900699FDF73AFA07900899C8
:102DB000FDF730FA09900A99FDF7DAF90B900C99B2
:102DC000FDF72EFA1090179808900D48406807906C
:102DD0000899FDF725FA0A901698069008480068A9
:102DE00005900699FDF71CFA08901598069004487E
:102DF000C06805900699FDF713FA079008990BE053
:102E000054010020A4010020500100202C0C0020BF
:102E10004C010020245F0008FDF7AAF909900A99E7
:102E2000FDF7F8F90B900C99FDF7FAF90F90179848
:102E30000890C648006807900899FDF7F1F90A90D4
:102E400016980690C148406805900699FDF7E8F984
:102E50000890BE48806880F00040069015980146B2
:102E600005900698FDF7DCF907900899FDF780F9C1
:102E700009900A99FDF77CF90B900C99FDF7D0F9B0
:102E80000E90B24800680B901199FDF771F9AF49A7
:102E90000860084640680B901099FDF769F9AB4946
:102EA0004860084680680B900F99FDF761F9A749C3
:102EB00088600846C0680B900E99FDF759F9A34940
:102EC000C8600846C06808900846C068079008991E
:102ED000FDF7A6F90A909D48806806909B48806897
:102EE00005900699FDF79CF9089098484068049071
:102EF0009648406803900499FDF792F9069093482C
:102F0000006804909148006803900499FDF788F9DF
:102F100005900699FDF72CF907900899FDF728F917
:102F200009900A99FDF724F90B9001F0EDF90D9045
:102F3000864800680B900D99FDF772F98349086087
:102F4000084640680B900D99FDF76AF97F49486083
:102F5000084680680B900D99FDF762F97B498860FF
:102F60000846C0680B900D99FDF75AF97749C8607B
:102F700008464068014604904FF08040FDF750F944
:102F800005907248C068014604900598FDF748F91D
:102F900007906E480068014604904FF08040FDF7AE
:102FA0003FF9059069488068014604900598FDF74F
:102FB00037F906900799FDF72DF90B9063480068E3
:102FC000014604904FF08040FDF72AF905905F48D4
:102FD0004068014604900598FDF722F907905B4888
:102FE0008068014604904FF08040FDF719F9059084
:102FF0005648C068014604900598FDF711F90690FF
:103000000799FDF7B5F80A9050488068014604908A
:103010004FF08040FDF704F905904C488068014668
:1030200004900598FDF7FCF8079048484068014671
:1030300003904FF08040FDF7F3F804904348406858
:10304000014603900498FDF7EBF84FF07E51059090
:10305000FDF7E3F806900799FDF7DCF809901E9854
:10306000B0F90A000690FDF764FA07903848016845
:103070000798FDF7D5F808904FF07E510898FDF7B6
:10308000E5FA04D333490898FDF7D6FA0DD2209912
:103090000898FDF7C5F807901F98806801460690CC
:1030A0000798FDF765F81F9988602B480068FDF7C1
:1030B00094FACDE904010B98FDF78FFACDE90001F0
:1030C00002F042FACDE90201DDE90423FDF7BFF980
:1030D000CDE90601FDF794FA1F994860DDE9091072
:1030E00002F06AFB07901C4801680798FDF798F802
:1030F0001F9908601E98B0F904000490FDF719FAB2
:1031000005900999FDF78CF807901E98B0F9020018
:103110000290FDF70EFA03900A99FDF781F80590E9
:103120001E98B0F900000290FDF703FA03900B9986
:10313000FDF776F804900599FDF71AF806900799BF
:10314000FDF716F80549086021B000BD54010020C4
:10315000205F0008000080BF185F000848010020C1
:10316000024800680249086070470000E8F7FF1F46
:103170003800002000BF0E4801684FF0E02082694F
:103180000B4800688142F6D10A48006800EB400312
:10319000C3EBC010C2EBC000064B1B68B0FBF3F0E2
:1031A00001EB4103C3EBC11300EBC3007047000008
:1031B0002C0000201400002000BFFEE708B54020CE
:1031C000304908600120009004E09DF80000401E96
:1031D000C0B200909DF800000028F6D18020294957
:1031E00008600120009004E09DF80000401EC0B27D
:1031F00000909DF800000028F6D140202149091FC9
:1032000008600120009004E09DF80000401EC0B25C
:1032100000909DF800000028F6D10120009004E005
:103220009DF80000401EC0B200909DF800000028EC
:10323000F6D10120009004E09DF80000401EC0B2CD
:1032400000909DF800000028F6D10120009004E0D5
:103250009DF80000401EC0B200909DF800000028BC
:10326000F6D14020074908600120009004E09DF855
:103270000000401EC0B200909DF800000028F6D16A
:1032800008BD0000140C014008B54020304908601A
:103290000120009004E09DF80000401EC0B20090A4
:1032A0009DF800000028F6D180202949091F0860F8
:1032B0000120009004E09DF80000401EC0B2009084
:1032C0009DF800000028F6D140202149091F086020
:1032D0000120009004E09DF80000401EC0B2009064
:1032E0009DF800000028F6D10120009004E09DF830
:1032F0000000401EC0B200909DF800000028F6D1EA
:103300000120009004E09DF80000401EC0B2009033
:103310009DF800000028F6D10120009004E09DF8FF
:103320000000401EC0B200909DF800000028F6D1B9
:103330004020074908600120009004E09DF800004B
:10334000401EC0B200909DF800000028F6D108BDD4
:10335000140C014008B50821002080222C4B1A6073
:103360004CE04206100E4022294B1B1D1A60012220
:10337000009204E09DF80020521ED2B200929DF807
:103380000020002AF6D10122009204E09DF80020DE
:10339000521ED2B200929DF80020002AF6D140229F
:1033A0001B4B1A600122009204E09DF80020521E7F
:1033B000D2B200929DF80020002AF6D1012200929C
:1033C00004E09DF80020521ED2B200929DF8002029
:1033D000002AF6D10122009204E09DF80020521E3E
:1033E000D2B200929DF80020002AF6D1084A083A8D
:1033F000126802F080020AB140F001000A1EA1F139
:103400000103D9B2ADD14022014B1B1D1A6008BD8A
:10341000100C014008B5082150E040222C4B1A60E6
:103420000122009204E09DF80020521ED2B20092C8
:103430009DF80020002AF6D100F0800222B18022FF
:10344000234B1B1F1A6002E08022214B1A604206A8
:10345000100E0122009204E09DF80020521ED2B20C
:1034600000929DF80020002AF6D14022184B1B1F25
:103470001A600122009204E09DF80020521ED2B290
:1034800000929DF80020002AF6D10122009204E06B
:103490009DF80020521ED2B200929DF80020002A12
:1034A000F6D10122009204E09DF80020521ED2B213
:1034B00000929DF80020002AF6D100BF0A1EA1F15B
:1034C0000103D9B2A9D14022014B1A6008BD000006
:1034D000140C014008B58020224908604020086093
:1034E0000120009004E09DF80000401EC0B2009052
:1034F0009DF800000028F6D11A480838006808B97D
:10350000012000E0002000F0800008B1012008BD8B
:1035100080201449091D08600120009004E09DF8F6
:103520000000401EC0B200909DF800000028F6D1B7
:103530000C480838006800F0800008B10120E6E778
:1035400040200849091D08600120009004E09DF812
:103550000000401EC0B200909DF800000028F6D187
:1035600000BFD4E7100C014008B540202449086092
:103570000120009004E09DF80000401EC0B20090C1
:103580009DF800000028F6D180201D490860012028
:10359000009004E09DF80000401EC0B200909DF82D
:1035A00000000028F6D10120009004E09DF8000002
:1035B000401EC0B200909DF800000028F6D14020C7
:1035C0000F49091F08600120009004E09DF80000E9
:1035D000401EC0B200909DF800000028F6D1802067
:1035E0000749091F08600120009004E09DF80000D1
:1035F000401EC0B200909DF800000028F6D108BD22
:10360000140C014008B540202A49086001200090B0
:1036100004E09DF80000401EC0B200909DF800003C
:103620000028F6D180202349091F0860012000905E
:1036300004E09DF80000401EC0B200909DF800001C
:103640000028F6D140201B49091F08600120009086
:1036500004E09DF80000401EC0B200909DF80000FC
:103660000028F6D10120009004E09DF80000401EE3
:10367000C0B200909DF800000028F6D10120009013
:1036800004E09DF80000401EC0B200909DF80000CC
:103690000028F6D107480C38006800F0800020B1FF
:1036A000402004490860012008BD4020014908600D
:1036B0000020F9E7140C014008B50121082000F0B2
:1036C0005BFEC020ADF8000003208DF8020014203E
:1036D0008DF8030069460248FFF7B6F808BD000000
:1036E000000C014070B504460D460026FFF7F2FEBF
:1036F000012800D170BD2046FFF78CFEFFF782FF46
:10370000012803D1FFF730FF0120F3E72846FFF738
:1037100081FEFFF777FFFFF727FFFFF7DBFE611C56
:10372000C8B2FFF777FEFFF76DFF012803D1FFF75F
:103730001BFF0120DEE7FFF70DFE0646FFF7A4FDA5
:10374000FFF712FF70B2D5E770B506460C46154676
:10375000FFF7C0FE012800D170BD3046FFF75AFECA
:10376000FFF750FF012803D1FFF7FEFE0120F3E72A
:103770002046FFF74FFEFFF745FF2846FFF74AFEBA
:10378000FFF740FFFFF7F0FE0020E5E72DE9F041ED
:1037900006460F4615461C46FFF79CFE012801D140
:1037A000BDE8F0813046FFF735FEFFF72BFF01281B
:1037B00003D1FFF7D9FE0120F2E73846FFF72AFED2
:1037C000FFF720FFFFF7D0FEFFF784FE711CC8B2A1
:1037D000FFF720FEFFF716FF012803D1FFF7C4FE15
:1037E0000120DDE70CE0FFF7B5FD2870012C02D1C8
:1037F000FFF74AFD01E0FFF7E1FC6D1C601EC4B25B
:10380000002CF0D1FFF7B0FE0020C9E74CF6CC4009
:1038100001490860704700000030004010B500F01A
:1038200013F810BD70B505460C4645F2555000F032
:103830001FF8284600F010F8204600F013F800F0BA
:1038400003F8FFF7E3FF70BD4AF6AA2001490860BC
:103850007047000000300040014948607047000098
:10386000003000400149886070470000003000408F
:103870000149086070470000003000401349498941
:10388000134A127891421FD01149097808290CD0A7
:1038900004DC012907D002290DD105E0102908D048
:1038A000802908D106E00AE009E00121094A1170E7
:1038B00005E004E003E00021064A117000BF00BFEC
:1038C0000249897A024A117070470000BC01002049
:1038D0003D0100203201002008B54FF000700C4976
:1038E00048600121092000F047FD01210948FFF748
:1038F00037F840F20630ADF8000010208DF80300D4
:1039000003208DF8020069460348FEF79DFF08BDBD
:103910000000014000023000000C0140194880887E
:10392000401C00B2174988800846C088401C00B27D
:10393000C88008460089401C00B2088108464089BA
:10394000401C00B2488108468089401C00B2888132
:103950000846C089401C00B2C8810846008A401C45
:1039600000B2088208460078012804DB0846408837
:10397000401C488004E003480078401C014908705E
:10398000704700006801002000BFFEE72DE9F04706
:103990009348007810B9FF20924908709148007848
:1039A000012806D0022811D01F2819D0FF287DD168
:1039B000B0E000208C49C880888048800880884812
:1039C000007810B102208749087000BF87488088BE
:1039D00040F24C41884202DD1F2082490870A4E079
:1039E00082488088A0F57A7004B280488088B0F55B
:1039F0007F7F06DA00207C49C88088804880088064
:103A000093E0002C01DA002006E0B4F5617F02DDCE
:103A10004FF4617000E020467349C8808880488078
:103A20000880734A916A734A906AFCF7F3FB8046F8
:103A30007148816A4046FCF7EDFB06466A49B1F9D8
:103A40000000FCF776FD07463146FCF791FB054682
:103A5000FCF77DFD00B264490880654A916A654AB9
:103A6000906AFCF785FB80466348816A4046FCF714
:103A70007FFB06465C49B1F90200FCF75AFD074698
:103A80003146FCF775FB0546FCF761FD00B256496F
:103A900048805848806A80F000485548816A40460E
:103AA000FCF766FB07465448816A00E03CE0384674
:103AB000FCF7B0FB06464C49B1F90400FCF739FDB0
:103AC00081463146FCF754FB0546FCF740FD00B249
:103AD000454988804748806A80F000484448816AA8
:103AE0004046FCF797FB07464348816A3846FCF797
:103AF0003FFB06463C49B1F90600FCF71AFD81463A
:103B00003146FCF735FB0546FCF721FD00B236498E
:103B1000C8800AE000203449C88088804880088036
:103B200001203049087000E000BF00BF2E48B0F906
:103B30000000002801DA00200BE02B48B0F900005B
:103B4000B0F57A7F02DD4FF47A7002E02648B0F9D2
:103B500000004FF0804188862348B0F90200002819
:103B600001DA00200BE02048B0F90200B0F57A7FBE
:103B700002DD4FF47A7002E01B48B0F902004FF00A
:103B8000804108871848B0F90400002801DA0020B5
:103B90000BE01548B0F90400B0F57A7F02DD4FF470
:103BA0007A7002E01048B0F904004FF08041888735
:103BB0000D48B0F90600002801DA00200BE00A48A1
:103BC000B0F90600B0F57A7F02DD4FF47A7002E0BA
:103BD0000548B0F9060009490880BDE8F0870000F3
:103BE000D4010020250100201C010020BC01002080
:103BF00070020020F0010020F00200204000004090
:103C00002DE9FE4F06236A463B21D020FFF7BEFD7B
:103C100006230DF106024321D020FFF7B7FD002453
:103C200058E0012000EB44001DF800001DF81410BE
:103C300040EA0120294931F81410401A00B22849FD
:103C4000096821F81400032C1BDA2549096831F9A9
:103C50001400FCF76EFC054604EB4401214A02EB1C
:103C6000C100294601F024FF04EB44011D4A02EB88
:103C7000C1018868FCF76BFC00B21949096821F89A
:103C80001400022C24DDE01EC5B2DFF85C8014496C
:103C9000096831F91400FCF74CFC82464146FCF7F8
:103CA000BFFA0746114951F825001149FCF7B8FA47
:103CB00081463946FCF75CFA0C4941F82500064676
:103CC000FCF745FC00B20649096821F8140000BF62
:103CD000601CC4B2062CA4DBBDE8FE8F580A00208D
:103CE0007C000020800000209A99193E640A002080
:103CF0009A99593FF0B58BB0182105A8FCF72DFA19
:103D00001E2505267742002003900490404800219C
:103D10000160416081604FF400503D49888000227D
:103D200001213C4800F0B0FE3BE000BF0A2001F05A
:103D3000A7FEFFF765FF002416E037480168E01C86
:103D400031F8100003A931F81410401A00B201A98B
:103D500021F8140030480168E01C31F8100003A974
:103D600021F81400601C04B2032CE6DBBDF904004A
:103D70000528DBDCBDF9040010F1050FD6DBBDF929
:103D800006000528D2DCBDF9060010F1050FCDDBD9
:103D9000BDF908000528C9DCBDF9080010F1050FC0
:103DA000C4DB281EA5F10101CDB2BED1002417E06D
:103DB000FFF726FF642C11DB00200CE005A951F869
:103DC0002010154A126832F91020114405AA42F851
:103DD0002010411CC8B20628F0DB00BF601C04B2F2
:103DE000B4F5B27FE4DB002409E005A850F8240014
:103DF000001200B2064921F81400601C04B2062C1F
:103E0000F3DB01221146034800F03EFE0BB0F0BD8B
:103E1000580A0020000400407C00002010B5002457
:103E20004FF4007025490860401008600220091F07
:103E300008600420086000BF80226B21D020FFF7BB
:103E400083FCC4B21E2001F01BFE02221921D020E7
:103E5000FFF77AFC2044C4B203226B21D020FFF785
:103E600073FC2044C4B203221A21D020FFF76CFC5B
:103E70002044C4B218221B21D020FFF765FC204447
:103E8000C4B209221C21D020FFF75EFC2044C4B23A
:103E900001200B490870002CCED17521D020FFF7EE
:103EA00021FCC4B2682C01D0012010BDFFF722FF15
:103EB00000200349087000BFF7E70000140C014020
:103EC00070000020704700001FB510A103C9CDE9A4
:103ED0000201052202A9302000F09AF80522694665
:103EE000102000F05DF8002406E01DF80400A5286D
:103EF00000D003E0601CC4B2052CF6DB00BF052C2B
:103F000002D0012004B010BD0020FBE7A5A5A5A5A7
:103F1000A500000008B501210C2000F02DFA4FF497
:103F20000060ADF8000010208DF8030003208DF82C
:103F3000020069461848FEF787FC4FF48050ADF840
:103F4000000010208DF8030003208DF80200694660
:103F50001248FEF779FC4FF400600F4910310860F9
:103F600040000E4910310860ADF8000048208DF87F
:103F7000030003208DF8020069460748FEF764FC41
:103F800000F022FB4FF40060034914310860400048
:103F900002491031086008BD00080140000C0140D2
:103FA0002DE9F04107460D4616464FF480500C4966
:103FB0000860384600F07EFB8046002405E0FF20C4
:103FC00000F078FB2855601CC4B2B442F7DB4FF414
:103FD00080500349091F08604046BDE8F081000099
:103FE000140C014070B504464FF480500749086036
:103FF000204600F05FFBFF2000F05CFB05464FF41D
:1040000080500249091F0860284670BD140C014009
:104010002DE9F04107460C4615464FF480500C49F7
:104020000860384600F046FB8046002605E014F89C
:10403000010B00F03FFB701CC6B2AE42F7DB4FF441
:1040400080500349091F08604046BDE8F081000028
:10405000140C014070B505460C464FF480500849D9
:104060000860284600F026FB0646204600F022FBAA
:104070004FF480500249091F0860304670BD0000AF
:10408000140C014010B5FFF745FF4FF400701249C2
:104090000860401008600220091D086004200860C4
:1040A00000BFFFF75DF80D4800687E21B0FBF1F21C
:1040B00001FB12000A49087000210320FDF7A2FD50
:1040C000012008490870FFF7FFFE0128E9D0002011
:1040D0000449087010BD0000100C01403800002099
:1040E000780000207100002010B513480088401CA3
:1040F000114908800846008801280ED10F48C07871
:10410000401DC1B20D48FCF78BFF0D480078401CE4
:104110000B49087001200B49087007480088B0F56A
:10412000FA7F05DB0120044908800020054908705A
:104130000448007810BD000076000020180A002016
:10414000740000207900002070B5002100230F22A8
:10415000C47804B3154C246804F4E064C4F5E06446
:10416000210AC1F10403CA40447804FA03F18478B7
:104170001440214309010E4C0678A155047804F03F
:104180001F050124AC4005786D11AD0005F1E02557
:10419000C5F8004109E0047804F01F050124AC4093
:1041A000044D0678761145F8264070BD0CED00E010
:1041B00000E400E080E100E002490143024A1160AE
:1041C000704700000000FA050CED00E070470000A9
:1041D0004948006849490968401A4949098888429C
:1041E00000D27047444800684449086044488078D9
:1041F000062879D2DFE800F026030E32435F4FF441
:104200000070404908600220086000020860042035
:1042100008606DE03B48001F006880F002003949EB
:10422000091F08600846006880F4007008600846AE
:10423000006880F0040008600846006880F4807020
:10424000086055E04FF400702E49091D08600220F7
:104250000860C00108600420086049E04FF4007065
:10426000284908600220091D0860C001091F086074
:104270000420091D086002202149887038E0214887
:10428000001F006880F002001E49091F08600846F0
:10429000006880F0040008600846006880F4007040
:1042A00008600846006880F4807008604FF4487029
:1042B000134908801CE04FF400701249091D086082
:1042C000401008600F48001F006880F002000D4990
:1042D000091F08600846006880F004000860462056
:1042E0000749088004E0FFE701200549887000BF06
:1042F00000BF00BF75E700002C0000206C0000200C
:1043000064000020100C01402DE9F05F04464FF0DE
:104310007F594FF07C512046FBF782FF82462546AD
:104320002E460C48A0EB6606354629465046FBF75C
:1043300077FF83462946FBF773FF80464946FBF724
:104340006CFF07462946FBF76BFF05462846BDE88C
:10435000F09F0000DF59375F29B1064AD269024356
:10436000044BDA6104E0034AD2698243014BDA610B
:10437000704700000010024029B1064A92690243CA
:10438000044B9A6104E0034A92698243014B9A61AB
:10439000704700000010024030B5002100220024C8
:1043A00000232D4D6D6805F00C0121B1042905D0C5
:1043B000082923D105E0294D056022E0274D05603D
:1043C0001FE0254D6D6805F47012234D6D6805F4EE
:1043D0008034022505EB92421CB9214D55430560FE
:1043E0000BE01D4D6D6805F400351DB11C4D5543A6
:1043F000056002E0194D5543056002E0174D056068
:1044000000BF00BF144D6D6805F0F0010909154D9E
:104410006B5C0568DD4045600F4D6D6805F4E0613B
:10442000090A104D6B5C4568DD4085600A4D6D687A
:1044300005F46051C90A0B4D6B5C4568DD40C560F1
:10444000054D6D6805F44041890B074D6B5CC568EF
:10445000B5FBF3F5056130BD0010024000127A0093
:1044600000093D003F0000204F00002070B540488B
:104470000088012803D03F48008801283BD13E4CEA
:104480003E4D3F49498840F2DC52501AFCF751F842
:1044900006462146FBF7C4FE3A49086038490988B8
:1044A00040F2DC52501AFCF744F806462146FBF76E
:1044B000B7FE354908603248C08840F21C71884216
:1044C00008DD324908684FF07D51FBF7A3FE2F4904
:1044D00008600DE02A48C08840F29C41884207DA13
:1044E0002A4908684FF07D51FBF742FE27490860D2
:1044F00001F054FC3AE026480088401C244908801A
:1045000008460088B0F5487F30DD40F2DC501C4999
:1045100008804880C8800846808840F2064188426A
:104520000FDA00201A4908804FF47A701449888005
:10453000002018490870022017498870FFF7A2FD73
:1045400013E040F22A30124908801448018800889C
:10455000401C124A1080642907DD002011460880A3
:104560000748808814380649888000BF70BD000065
:10457000760000202E0100200AD7233DA69BC43AD6
:10458000BC01002070030020F00300207004002014
:10459000E0000020D401002064000020E2000020A0
:1045A00010B5FFF7A1FD08B900F02AFE10BD21B13A
:1045B000028842F04002028004E002884FF6BF7396
:1045C0001A4002807047000000B587B001218803BF
:1045D000FFF7C2FE01210920FFF7CEFE4FF4805104
:1045E0001C48FEF705FA4FF46040ADF804000320C4
:1045F0008DF8060018208DF8070001A91548FEF770
:1046000023F900211448FFF7D2FF0020ADF808007D
:104610004FF48270ADF80A000020ADF80C00ADF840
:104620000E00ADF810004FF40070ADF8120010202D
:10463000ADF814000020ADF816000720ADF8180002
:1046400002A9054800F018F801210348FFF7AFFF61
:1046500007B000BD000C01400038004002460020B9
:1046600013890B400BB1012000E000207047014688
:10467000888970478181704710B50022028802F452
:1046800041520B884C8823438C882343CC88234396
:104690000C8923434C8923438C892343CC892343AE
:1046A0001A430280838B4FF2FF74234083830B8A6B
:1046B000038210BD10B5044600BF02210A48FFF76F
:1046C000CDFF0028F9D021460748FFF7D3FF00BFF0
:1046D00001210548FFF7C2FF0028F9D00248FFF783
:1046E000C6FFC0B210BD000000380040704710B5D2
:1046F00000F002F810BD00000CB500200190009001
:104700003348006840F480303149086000BF3048C9
:10471000006800F4003000900198401C019000985F
:1047200018B90198B0F5A06FF1D12948006800F4DC
:10473000003010B10120009001E0002000900098AE
:10474000012843D12348006840F010002149086047
:104750000846006820F0030008600846006840F042
:10476000020008601A4840681949486008464068D5
:1047700048600846406840F48060486008464068E9
:1047800020F47C1048600846406840F4E810486017
:104790000846006840F08070086000BF0C48006860
:1047A00000F000700028F9D00948406820F00300AC
:1047B000074948600846406840F00200486000BF72
:1047C0000348406800F00C000828F9D10CBD000037
:1047D000001002400020024010B500F001F810BDAA
:1047E00010B50E480068401C0C4908600C48007861
:1047F00000B910BD0B480078401C0A4908700878C1
:1048000000EBD0714910A0EB4101064A117010462F
:10481000007808B1FFF782F800BFEAE72C0000201B
:104820001C0000201D00002010B51348006840F057
:1048300001001149086008464068104908400E49C7
:104840004860084600680E4908400B490860084661
:10485000006820F4802008600846406820F4FE00CC
:1048600048604FF41F008860FFF741FF4FF0006081
:104870000449086010BD0000001002400000FFF86D
:10488000FFFFF6FE08ED00E010B588B0012104201E
:10489000FFF772FD0F20ADF8000003208DF8020035
:1048A00018208DF8030069462D48FDF7CDFF012142
:1048B0000846FFF751FD2B4800684FF47A71B0FBB2
:1048C000F1F044F25061B0FBF1F0401E84B240F2CE
:1048D000E730ADF81800ADF814400020ADF81A002C
:1048E000ADF8160005A94FF0804000F033FA6020C3
:1048F000ADF804000120ADF806000020ADF80A0074
:10490000ADF80C0001A94FF0804000F0C7F8082175
:10491000C80600F00FF901A94FF0804000F014F92B
:104920000821C80600F062F901A94FF0804000F0AC
:104930006BF90821C80600F0B7F901A94FF08040D3
:1049400000F0BCF90821C80600F0F6F9012188073B
:1049500000F082F80121880700F08AF808B010BD45
:10496000000801400000002010B588B0012102209D
:10497000FFF7F2FC01210820FFF7FEFC01210846A9
:10498000FFF7FAFC01213048FDF7EAFF3020ADF8CF
:10499000000003208DF8020018208DF803006946FE
:1049A0002A48FDF751FF2A4800684FF47A71B0FB9E
:1049B000F1F044F25061B0FBF1F0401E84B240F2DD
:1049C000E730ADF81800ADF814400020ADF81A003B
:1049D000ADF8160005A91F4800F0BCF96020ADF83D
:1049E00004000120ADF806000020ADF80A00ADF883
:1049F0000C0001A9174800F051F80821154800F0F3
:104A000099F801A9134800F09FF80821114800F017
:104A1000EDF801A90F4800F0F7F808210D4800F063
:104A200043F901A90B4800F049F90821094800F0B1
:104A300083F90121074800F00FF80121054800F033
:104A400017F808B010BD000000081A00000C014063
:104A5000000000200004004021B1028842F08002E2
:104A6000028004E002884FF67F731A40028070478C
:104A700021B1028842F00102028004E002884FF670
:104A8000FE731A40028070471AB183890B438381F9
:104A900002E083898B4383817047000070B5002456
:104AA00000220023058C4FF6FE7635400584028CEB
:104AB0008388048B4FF68F752C40B51E2C400D88D3
:104AC0002C43751E2A400D892A434D882A43144DD4
:104AD000A8420BD0134DA84208D0134DA84205D0D0
:104AE000124DA84202D0124DA84213D14FF6F775CD
:104AF0002A404D892A434FF6FB752A408D882A4368
:104B00004FF6FF652B404FF6FF552B408D892B4309
:104B1000CD892B4383800483CD888586028470BD34
:104B2000002C01400034014000400140004401409D
:104B3000004801400A460021018B4FF6F7731940E7
:104B4000114301837047000070B500240022002348
:104B5000058C4FF6EF7635400584028C8388048BF4
:104B600048F6FF752C404FF6FF452C400D884FF658
:104B7000FF7606EA05252C434FF6DF752A400D899E
:104B800006EA05152A434D8806EA05152A43154D00
:104B9000A84202D0144DA8421DD14FF67F752A407D
:104BA0004D894FF6FF7606EA05152A434FF6BF7585
:104BB0002A408D8806EA05152A434FF6FF352B401B
:104BC0004FF2FF752B408D8906EA85052B43CD8971
:104BD00006EA85052B4383800483CD8805870284FC
:104BE00070BD0000002C0140003401400A46002145
:104BF000018B4FF2FF7319404FF6FF7303EA022354
:104C0000194301837047000070B50024002200237F
:104C1000058C4FF6FF6635400584028C8388848BB3
:104C20004FF68F752C404FF6FC752C400D882C43A9
:104C30004FF6FF552A400D894FF6FF7606EA052507
:104C40002A434D8806EA05252A43154DA84202D07D
:104C5000144DA8421DD14FF2FF752A404D894FF6E1
:104C6000FF7606EA05252A434FF6FF352A408D8850
:104C700006EA05252A434EF6FF752B404DF6FF75D3
:104C80002B408D8906EA05152B43CD8906EA0515CB
:104C90002B4383808483CD888587028470BD000088
:104CA000002C0140003401400A460021818B4FF660
:104CB000F7731940114381837047000070B50022DB
:104CC00000230024058C4EF6FF7635400584038CC6
:104CD0008488828B48F6FF752A404FF6FF452A40AC
:104CE0000D884FF6FF7606EA05252A434DF6FF7537
:104CF0002B400D8906EA05352B434D8806EA05351C
:104D00002B430B4DA84202D00A4DA84208D14BF6C6
:104D1000FF752C408D894FF6FF7606EA85152C43EA
:104D200084808283CD88A0F84050038470BD000049
:104D3000002C0140003401400A460021818B4FF2D3
:104D4000FF7319404FF6FF7303EA0223194381836F
:104D500070470000002202881D4B98420ED01D4B68
:104D600098420BD0B0F1804F08D01B4B984205D031
:104D70001A4B984202D01A4B984204D14FF68F73C7
:104D80001A404B881A43174B984207D0164B98424B
:104D900004D04FF6FF431A40CB881A4302808B8819
:104DA00083850B8803850A4B98420BD0094B9842A8
:104DB00008D00E4B984205D00D4B984202D00D4BB7
:104DC000984201D10B7A0386012383827047000049
:104DD000002C014000340140000400400008004065
:104DE000000C004000100040001400400040014052
:104DF000004401400048014010B508211A4800F065
:104E000054F910B1184800F0EFF91748008800F085
:104E10008000F0B114480C30008800F08000C0B170
:104E2000124801780078401C104A10701048405C0D
:104E30000D49091D0880104600780E4909788842FE
:104E400007D109480C30008820F0800006490C3159
:104E500008800548008800F0200020B10249091DA3
:104E60000988C8B200BF10BD003801405E000020B4
:104E7000180800205F0000201C48008800F008008F
:104E800020B11A49091D0988C8B200BF1748008817
:104E900000F08000F0B115480C30008800F0800070
:104EA000C0B1134801780078401C114A10701148B5
:104EB000405C0E49091D0880104600780E490978AB
:104EC000884207D109480C30008820F0800007494B
:104ED0000C3108800548008800F0200020B103490B
:104EE000091D0988C8B200BF704700000044004097
:104EF00061000020180900206200002010B588B071
:104F0000044601218804FFF727FA01210820FFF752
:104F100033FA4FF48060ADF8040018208DF80700D4
:104F200003208DF8060001A92548FDF78DFC4FF4FC
:104F30000060ADF8040003208DF8060004208DF811
:104F4000070001A91E48FDF77FFC04940020ADF87E
:104F50001400ADF81600ADF81800ADF81C000C20D8
:104F6000ADF81A000020ADF80800ADF80A004FF4C3
:104F70000070ADF80C000020ADF80E0004A9114837
:104F800000F0C6F802A90F4800F072F8012240F2C2
:104F900025510C4800F096F801210A4800F079F8F4
:104FA00027208DF8000003208DF8010001208DF8E6
:104FB00002008DF803006846FFF7C6F808B010BD80
:104FC000000C01400048004010B51948008800F06E
:104FD0008000F0B116480C30008800F08000C0B1AD
:104FE000144801780078401C124A10701248405C46
:104FF0000F49091D08801046007810490978884239
:1050000007D10B480C30008820F0800008490C3193
:1050100008800748008800F0200038B10448001DCF
:105020000088C4B22046FCF7F5F800BF10BD0000B0
:1050300000480040D6000020B80A0020D700002019
:1050400070B505460E4600240DE000BF07480088F5
:1050500000F080000028F9D0285781B2034800F002
:10506000C8F8601CC4B2B442EFDB70BD0048004019
:1050700010B502460020108A4FF2FF0318400B883B
:105080004C8823438C882343CC88234318431082C5
:1050900010BD21B1828942F40052828104E08289EC
:1050A0004DF6FF731A408281704702460020B1F529
:1050B000007F00D100BF13880B400BB1012000E03E
:1050C00000207047F0B5034600240026002500208C
:1050D00040F66A17B94200D100BF1846C1F3421426
:1050E00001F01F06012707FA06F5012C01D10C304B
:1050F00004E0022C01D1103000E014301AB107682E
:105100002F43076002E00768AF430760F0BD00006F
:105110002DE9F04786B005460E460024A24600BFA2
:10512000A1460027B08900B100BF2F462C8A4CF65B
:10513000FF700440F08804432C82AC894EF6F310D3
:105140000440B08831890843718908430443AC8125
:10515000AC8A4FF6FF400440B0890443AC8201A8FA
:10516000FFF71AF91F48874202D1DDF810A001E0CD
:10517000DDF80CA0A88900F4004040B10AEBCA0099
:1051800000EB0A1031684900B0FBF1F807E00AEBC8
:10519000CA0000EB0A1031688900B0FBF1F8642006
:1051A000B8FBF0F004012009642101FB1089A889F3
:1051B00000F4004040B1322000EBC900B0FBF1F038
:1051C00000F00700044308E0322000EB09106421DE
:1051D000B0FBF1F000F00F0004432C8106B0BDE8F5
:1051E000F08700000038014001468888C0F30800BD
:1051F0007047C1F308028280704700BFFEE70000DD
:1052000010B518480088401C1649088008460088D8
:10521000012817D10821144800F030F8134800780D
:10522000401C12490870012011490870114800788B
:10523000401C1049087008460078022802DB002054
:10524000087000BF074800881E2807DB01200549B9
:105250000880002006490870074948700448007813
:1052600010BD00002E010020260100203101002089
:105270003E0100203F010020C80000202DE9F05F22
:1052800082460220554948709AF80200FBF75AF905
:1052900007464FF08741FAF7F5FF06465049FAF7FF
:1052A000BFFF05464E49FAF763FF0446FBF768F96E
:1052B0004C4988809AF80300FBF744F98346FBF7D2
:1052C0008CF980460022484BFBF7C1F806460022C5
:1052D000464BFBF715F80446FBF766F94149C880D1
:1052E0009AF80000FBF72EF907464FF08741FAF7CE
:1052F000C9FF06463A49FAF793FF05463849FAF7D7
:1053000037FF0446FBF73CF9364908809AF801005C
:10531000FBF718F907464FF08741FAF7B3FF064647
:105320002F49FAF77DFF05462D49FAF721FF04467C
:10533000FBF726F92B4948809AF80000FBF702F9A1
:105340000446FBF71DF92A4908709AF80100FBF79B
:10535000F9F80446FBF714F9254948709AF8020059
:10536000FBF7F0F80446FBF70BF9214988709AF82F
:105370000300FBF7E7F80446FBF702F91C49C87085
:105380009AF80400FBF7DEF80446FBF7F9F8184931
:1053900008719AF80500FBF7D5F80446FBF7F0F81A
:1053A000134948719AF80600FBF7CCF80446FBF75E
:1053B000E7F80F4988719AF80700FBF7C3F804462D
:1053C000FBF7DEF80A49C8719AF8040005494881DC
:1053D000887AFEF753FABDE8F09F0000C80000206D
:1053E00000007A44BC01002000400F4000408F4084
:1053F00033010020490050EAC12018BF04204A0DA3
:1054000018BF40F0010040F2FF72B2EB515F08BFDD
:1054100040F00200012808BF052070474100080243
:1054200018BF04200A0E18BF40F001004FF07F4261
:1054300032EA010108BF40F00200012808BF052040
:1054400070472DE9F0414F1E00EBC7010446D1E93A
:10545000000115461E4637F006020DD02A46334697
:10546000FAF7F5FF7F1E04EBC703D3E90023FAF731
:1054700047FF37F00602F1D1022F25D0042F13D0B9
:10548000062F18BFBDE8F0812A463346FAF7DFFF42
:10549000D4E90A23FAF734FF2A463346FAF7D7FF4E
:1054A000D4E90823FAF72CFF2A463346FAF7CFFF50
:1054B000D4E90623FAF724FF2A463346FAF7C7FF52
:1054C000D4E90423FAF71CFF2A463346FAF7BFFF54
:1054D000D4E90223FAF714FF2A463346FAF7B7FF56
:1054E000D4E90023BDE8F041FAF70ABF0122FBF737
:1054F000F7B90022134610461146FBF782B90000A7
:10550000024A00201107FBF7EBB9000001FDFFFF85
:10551000FAF72EBE6FF05E010807FBF709B902E04B
:1055200008C8121F08C1002AFAD17047704700202E
:1055300001E001C1121F002AFBD170470149086038
:1055400070470000640100202DE9F04D8D4F21F0DF
:10555000004A86B005460C46BA452ADBAAEB07008E
:1055600028430AD08848824501DC1AD1CDB106B063
:105570002846BDE8F04DFFF7B9BF844A844B284662
:10558000FAF765FF07460E46824A834B28462146B6
:10559000FAF75DFF06B03A463346BDE8F04DFAF73C
:1055A000AFBE0120FFF7CAFF06B0BDE8F04DFFF720
:1055B000A0BF7A48824542DABAF1795F0BDA284611
:1055C000FFF718FF042808BFFFF79AFF284606B028
:1055D0002146BDE8F08D2A460B461046FAF737FF04
:1055E000834602466E480E460B4606217844FFF776
:1055F00028FF5A463346FAF72AFF804669488A460A
:105600005A46334604217844FFF71BFF5A46334677
:10561000FAF71DFF00223B46FAF772FE02460B46E0
:1056200040465146FBF7EDF82A462346FAF70FFFAE
:1056300006B02A462346BDE8F04DFAF761BE28467B
:1056400024F0004100223D463B46FAF7FDFE4FF0B4
:10565000FF32FBF745F90646024653480F460B4614
:1056600006217844FFF7EDFE32463B46FAF7EFFE9F
:10567000CDE900014D4832463B4604217844FFF70E
:10568000E0FE32463B46FAF7E2FE00222B46FAF7EE
:1056900037FE834602913046394600F00FFC8046C3
:1056A00043480D46504517DCDDE900015A46029B90
:1056B000FBF7A7F842462B46FAF7C9FE42462B46AF
:1056C000FAF71EFE0122FBF70BF9304A304BFAF7CE
:1056D000B8FE304A304B4CE04FF0000A52460B46C1
:1056E0004046FAF70DFECDE9031052462B46104610
:1056F0001946FAF7ACFE32463B46FAF7A5FEDDE95D
:105700000332FBF77EF806460F46DDE900015A46F4
:10571000029BFBF776F8834600910122304639461A
:10572000FBF7DEF8194A1A4BFAF78EFE06460F46CB
:10573000012240462946FBF7D3F85A46009BFAF768
:1057400086FE32463B46FAF77CFE06460F460122AD
:1057500050462946FBF7C4F80E4DDFF858802A461C
:105760004346FAF771FE32463B46FAF76DFE2A468B
:105770004346FAF769FE002CD8BF81F0004106B01D
:10578000BDE8F08D0000F03F0000F07F075C1433AF
:1057900026A6913C182D4454FB21F93F0000E03F20
:1057A0004009000056090000CA080000E008000097
:1057B0003333EF3FFB21E93F2DE9F0474FF06842DB
:1057C00002EB40030C460546B3F1654F3CBF02EBCC
:1057D0004102B2F1654F80F0CD8000BFC0F3C752E7
:1057E000C1F3C753D21A1B2A06DD10F0004F14BFB5
:1057F00087488848BDE8F08712F11A0F2FDA11F0B8
:10580000004F06D010F0004F0CBF83488348BDE81E
:10581000F08721462846FAF735FD0646FFF7FEFDDC
:10582000042808BFFFF776FE2846FFF7F7FD054678
:105830002046FFF7F3FD04463046FFF7EFFD042D49
:1058400018BF052D08D1042C18BF052C04D1002841
:1058500004BF0220FFF772FE3046BDE8F087420029
:10586000B2EB410F25D910F0004F19BF6C4F6D4EB0
:105870006D4F6E4E224685F0004415460A4680F074
:10588000004110460A1A5200B2F1807F3ED24840D1
:105890006749DFF8A0A110F0004F18D04FF03F4843
:1058A0003846FAF7B7FC074651463046FAF7B2FCDD
:1058B00017E011F0004F04BF00263746E2D010F089
:1058C000004F19BF5C4F5D4E5D4F5E4EDAE74FF003
:1058D0007C583846FAF74CFC074651463046FAF7F2
:1058E00047FC064641462846FAF79AFC2146FAF755
:1058F0003FFC824621464046FAF792FC2946FAF7D9
:105900008CFC5146FAF7BEFC044604E021462846CA
:10591000FAF7B8FC04460146FAF782FC80464A4989
:10592000FAF77EFC4949FAF723FC4146FAF778FC7E
:105930004749FAF71DFC4146FAF772FC4549FAF768
:1059400017FC4146FAF76CFC4349FAF711FC05468F
:1059500041462046FAF764FC2946FAF761FC3146D5
:10596000FAF706FC2146FAF703FC3946BDE8F04792
:10597000FAF7FEBB4FF07F42B2EB400F28BFB2EB0D
:10598000410F03D2BDE8F047FFF7C2BD40EA010373
:105990005B0008BF44F0FF410AD0B2EB400F08BFE4
:1059A000B2EB410F06D125F0804024F0804105463E
:1059B0000C4613E7B2EB400F12BF5FEA410345F01C
:1059C000FF4004F000413FF409AFB2EB410F12BFBA
:1059D0005FEA400205F0004044F0FF413FF4FEAEB4
:1059E0004A0092EA40033FF5F9AE002AACBF4FF0FF
:1059F0009F464FF03E563146FAF712FC05463146B7
:105A00002046FAF70DFC044628462146E6E600004B
:105A1000DB0FC9BFDB0FC93FDB0F4940DB0F49C0BC
:105A20000000C9BF22AAFDB90000C93F22AAFD3962
:105A30000060ED3EC30ACE37000049C022AA7DBAFD
:105A40000000494022AA7D3A2DAD65BD8FB8D53DF5
:105A50000FB511BE61C84C3EA8AAAABE00B585B05C
:105A60006846FEF799FC04490098B0FBF1F0034941
:105A7000086005B000BD000040420F001400002087
:105A800030B50446FDF776FB054600BFFDF772FB17
:105A9000401B04EB4401C1EBC411B0EBC10FF5D3C3
:105AA00002480068401C0149086030BD1800002011
:105AB0002DE9F04104460D4621692068FAF758FBAC
:105AC000606061696068FAF753FB064631466068BA
:105AD000FAF7D8FBE0602846A168FAF79BFB074677
